{
  "contractName": "Neutral",
  "abi": [
    {
      "constant": true,
      "inputs": [
        {
          "name": "",
          "type": "uint256"
        }
      ],
      "name": "connections",
      "outputs": [
        {
          "name": "ip_src",
          "type": "string"
        },
        {
          "name": "ip_dest",
          "type": "string"
        },
        {
          "name": "latency",
          "type": "string"
        },
        {
          "name": "timestamp",
          "type": "string"
        }
      ],
      "payable": false,
      "stateMutability": "view",
      "type": "function"
    },
    {
      "constant": false,
      "inputs": [
        {
          "name": "_ip_src",
          "type": "string"
        },
        {
          "name": "_ip_dest",
          "type": "string"
        },
        {
          "name": "_latency",
          "type": "string"
        },
        {
          "name": "_timestamp",
          "type": "string"
        }
      ],
      "name": "saveConnection",
      "outputs": [],
      "payable": false,
      "stateMutability": "nonpayable",
      "type": "function"
    },
    {
      "constant": true,
      "inputs": [
        {
          "name": "idx",
          "type": "uint256"
        }
      ],
      "name": "getConnection",
      "outputs": [
        {
          "name": "",
          "type": "string"
        },
        {
          "name": "",
          "type": "string"
        },
        {
          "name": "",
          "type": "string"
        },
        {
          "name": "",
          "type": "string"
        }
      ],
      "payable": false,
      "stateMutability": "view",
      "type": "function"
    }
  ],
  "bytecode": "0x6080604052600060015534801561001557600080fd5b50610a3b806100256000396000f3006080604052600436106100565763ffffffff7c01000000000000000000000000000000000000000000000000000000006000350416633d06b900811461005b578063c06003f01461021d578063c5634a9b14610332575b600080fd5b34801561006757600080fd5b5061007360043561034a565b6040518080602001806020018060200180602001858103855289818151815260200191508051906020019080838360005b838110156100bc5781810151838201526020016100a4565b50505050905090810190601f1680156100e95780820380516001836020036101000a031916815260200191505b5085810384528851815288516020918201918a019080838360005b8381101561011c578181015183820152602001610104565b50505050905090810190601f1680156101495780820380516001836020036101000a031916815260200191505b50858103835287518152875160209182019189019080838360005b8381101561017c578181015183820152602001610164565b50505050905090810190601f1680156101a95780820380516001836020036101000a031916815260200191505b50858103825286518152865160209182019188019080838360005b838110156101dc5781810151838201526020016101c4565b50505050905090810190601f1680156102095780820380516001836020036101000a031916815260200191505b509850505050505050505060405180910390f35b34801561022957600080fd5b506040805160206004803580820135601f810184900484028501840190955284845261033094369492936024939284019190819084018382808284375050604080516020601f89358b018035918201839004830284018301909452808352979a99988101979196509182019450925082915084018382808284375050604080516020601f89358b018035918201839004830284018301909452808352979a99988101979196509182019450925082915084018382808284375050604080516020601f89358b018035918201839004830284018301909452808352979a9998810197919650918201945092508291508401838280828437509497506105bb9650505050505050565b005b34801561033e57600080fd5b50610073600435610689565b600080548290811061035857fe5b60009182526020918290206004919091020180546040805160026001841615610100026000190190931692909204601f8101859004850283018501909152808252919350918391908301828280156103f15780601f106103c6576101008083540402835291602001916103f1565b820191906000526020600020905b8154815290600101906020018083116103d457829003601f168201915b505050505090806001018054600181600116156101000203166002900480601f01602080910402602001604051908101604052809291908181526020018280546001816001161561010002031660029004801561048f5780601f106104645761010080835404028352916020019161048f565b820191906000526020600020905b81548152906001019060200180831161047257829003601f168201915b50505060028085018054604080516020601f60001961010060018716150201909416959095049283018590048502810185019091528181529596959450909250908301828280156105215780601f106104f657610100808354040283529160200191610521565b820191906000526020600020905b81548152906001019060200180831161050457829003601f168201915b5050505060038301805460408051602060026001851615610100026000190190941693909304601f81018490048402820184019092528181529495949350908301828280156105b15780601f10610586576101008083540402835291602001916105b1565b820191906000526020600020905b81548152906001019060200180831161059457829003601f168201915b5050505050905084565b60408051608081018252858152602080820186905291810184905260608101839052600080546001810180835591805282518051929460049092027f290decd9548b62a8d60345a988386fc84ba6bc95484008f6362f93160ef3e56301926106269284920190610974565b50602082810151805161063f9260018501920190610974565b506040820151805161065b916002840191602090910190610974565b5060608201518051610677916003840191602090910190610974565b50506001805481019055505050505050565b60608060608060015485111515156106a057600080fd5b60008054869081106106ae57fe5b90600052602060002090600402016000016000868154811015156106ce57fe5b90600052602060002090600402016001016000878154811015156106ee57fe5b906000526020600020906004020160020160008881548110151561070e57fe5b9060005260206000209060040201600301838054600181600116156101000203166002900480601f0160208091040260200160405190810160405280929190818152602001828054600181600116156101000203166002900480156107b45780601f10610789576101008083540402835291602001916107b4565b820191906000526020600020905b81548152906001019060200180831161079757829003601f168201915b5050865460408051602060026001851615610100026000190190941693909304601f8101849004840282018401909252818152959950889450925084019050828280156108425780601f1061081757610100808354040283529160200191610842565b820191906000526020600020905b81548152906001019060200180831161082557829003601f168201915b5050855460408051602060026001851615610100026000190190941693909304601f8101849004840282018401909252818152959850879450925084019050828280156108d05780601f106108a5576101008083540402835291602001916108d0565b820191906000526020600020905b8154815290600101906020018083116108b357829003601f168201915b5050845460408051602060026001851615610100026000190190941693909304601f81018490048402820184019092528181529597508694509250840190508282801561095e5780601f106109335761010080835404028352916020019161095e565b820191906000526020600020905b81548152906001019060200180831161094157829003601f168201915b5050505050905093509350935093509193509193565b828054600181600116156101000203166002900490600052602060002090601f016020900481019282601f106109b557805160ff19168380011785556109e2565b828001600101855582156109e2579182015b828111156109e25782518255916020019190600101906109c7565b506109ee9291506109f2565b5090565b610a0c91905b808211156109ee57600081556001016109f8565b905600a165627a7a72305820718a6dfdda2e9ada278dba45ca6939abeca1506caed7f32ca19a2b33db98a6010029",
  "source": "pragma solidity ^0.4.17;\r\n\r\ncontract Neutral {\r\n\r\n    // Declare data structures\r\n    struct Connection {\r\n        string ip_src;\r\n        string ip_dest;\r\n        string latency;\r\n        string timestamp;\r\n    }\r\n    Connection[] public connections;\r\n    uint counter = 0;\r\n\r\n    // Method to create complaints\r\n    function saveConnection(\r\n      string _ip_src,\r\n      string _ip_dest,\r\n      string _latency,\r\n      string _timestamp\r\n    ) public {\r\n        connections.push(Connection(_ip_src, _ip_dest, _latency, _timestamp));\r\n        counter++;\r\n    }\r\n\r\n    function getConnection(uint idx) public view returns (string, string, string, string) {\r\n        require(idx <= counter);\r\n        return (connections[idx].ip_src, connections[idx].ip_dest, connections[idx].latency, connections[idx].timestamp);\r\n    }\r\n}\r\n",
  "sourcePath": "C:\\Users\\ChrisP\\Documents\\hackathon_2018\\truffle-box\\contracts\\Neutral.sol",
  "compiler": {
    "name": "solc",
    "version": "0.4.23+commit.124ca40d.Emscripten.clang"
  },
  "schemaVersion": "2.0.0",
  "updatedAt": "2018-04-29T01:10:23.929Z"
}